:100000000C9437000C94CB0B0C94CB0B0C94CB0BB7
:100010000C94CB0B0C94CB0B0C94D10A0C94CB0B03
:100020000C94CB0B0C94CB0B0C94CB0B0C94CB0BF8
:100030000C94CB0B0C94CB0B0C94CB0B0C94CB0BE8
:100040000C94CB0B0C94CB0B0C94CB0B0C94CB0BD8
:100050000C94CB0B0C9467090C94CB0B0C94CB0B2E
:100060000C94CB0B0C94CB0B0100012880001124C5
:100070001FBECFEFD8E0DEBFCDBFE8E6F0E040E046
:1000800017C0B591A59135912591059107FD0CC03B
:1000900095918591EF01F92FE82F05900D92A21708
:1000A000B307D9F7FE0104C01D92A217B307E1F709
:1000B000ED36F40731F70E94D6030C94560BF894F2
:0200C000FFCF70
:1000C20068076C094C836A9074A07AC000806888C3
:0600D20000846C82008135
:1000D800253032753A253032753A25303275200090
:0500E80025750D0A0062
:0700ED00286E756C6C290000
:0600F400286E696C290072
:1000FA002F923F924F926F927F928F929F92AF92DE
:10010A00BF92CF92DF92EF92FF920F931F93CF93FA
:10011A00DF93CDB7DEB72E970FB6F894DEBF0FBECA
:10012A00CDBF4C016B0138011A8219828FEF9FEF04
:10013A009C838B831E821D8258874F833A87298727
:10014A00A12CB12CD6012D913D914C912A0D3B1D2C
:10015A00411DB7FC4A95F901849147FD80818111BF
:10016A0016C0F601208331834283F901849147FD49
:10017A008081853209F00FC21901442EFFEF2F1A30
:10018A003F0A4F0AD6012D923D924C921BC08532EE
:10019A0041F3B401082E000C990B0E9425074FEF7A
:1001AA00A41AB40ACFCF2C32DCF02D3229F52981DA
:1001BA003A8121603A8329830196A11DF601808341
:1001CA009183A283F60180819181A281FC0124910D
:1001DA00A7FD20812B3239F729813A812460EACFA1
:1001EA00203221F429813A812860E4CF233251F464
:1001FA0029813A812061DECF203321F429813A8195
:10020A002260D8CFB701C6010E94C8089E838D8399
:10021A0097FF0BC029813A81F1E02F273A8329837E
:10022A009195819591099E838D8389819A8180FF19
:10023A0003C08D7F9A838983F60180819181A2818F
:10024A00FC012491A7FD20812E3261F40196A11DA3
:10025A00F60180839183A283B701C6010E94C80870
:10026A009C838B83C6010E94D606182FD6012C9137
:10027A0011968C91119712969C91E22FF82F8491E6
:10028A0097FD8081082E000C990B0E94850B8936F8
:10029A0009F44AC084F4833609F419C134F4853266
:1002AA0009F445C18136E1F050C18436E9F1883656
:1002BA000CF4E9C04AC1803709F4B0C03CF48E3668
:1002CA0009F4D6C08F3609F46DC03FC1853709F4E9
:1002DA004AC0883709F485C0833709F036C10DC191
:1002EA00612F70E0A701CE010B960E940000892BB6
:1002FA0009F448C1F60180819181A2819C014A2FAB
:10030A002F5F3F4F4F4F208331834283FC0124915B
:10031A00A7FD2081AE01455F5F4FBE016F5F7F4F32
:10032A00C4010E9400002BC1612F70E0970141E0D7
:10033A0050E0CE010B960E94EE04892B09F422C1EB
:10034A00F60180819181A2810196A11D808391830A
:10035A00A283AE01455F5F4FBE016F5F7F4FC4014D
:10036A000E947B040CC1612F70E0970140E050E0CD
:10037A00CE010B960E94EE04892B09F403C1F60103
:10038A0080819181A2810196A11D80839183A2839C
:10039A00AE01455F5F4FBE016F5F7F4FC4010E9490
:1003AA000608EDC0612F70E0970140E050E0CE01F1
:1003BA000B960E94EE04892B09F4E4C0F6018081B1
:1003CA009181A2810196A11D80839183A283AE01AE
:1003DA00455F5F4FBE016F5F7F4FC4010E942A06CF
:1003EA00CEC0612F70E0970140E050E0CE010B963D
:1003FA000E94EE04892B09F4C5C0F601808191811F
:10040A00A2819C014A2F2F5F3F4F4F4F2083318398
:10041A004283FC012491A7FD208120C0970140E07E
:10042A0050E060EF70E0CE010B960E94EE04892B3B
:10043A0009F4A8C0F60180819181A2810196A11DCB
:10044A0080839183A2838B859C85892B31F400E07C
:10045A0010E024EF30E040E08CC028E7AE01455FB1
:10046A005F4FBE016F5F7F4FC4010E94E90287C0E0
:10047A00A501460D571D612F70E09701CE010B961D
:10048A000E9400007FC0612F70E0A701CE010B9689
:10049A000E940000892B09F475C0F60180819181C0
:1004AA00A2819C014A2F2F5F3F4F4F4F20833183F8
:1004BA004283FC012491A7FD2081AE01455F5F4F75
:1004CA00BE016F5F7F4FC4010E94000058C0103800
:1004DA0009F058C0F60180819181A2810196A11D7F
:1004EA0080839183A283D701ED91FC911197CF016B
:1004FA0002968D939C93808126C0103809F042C0E1
:10050A00F60180819181A2810196A11D8083918348
:10051A00A283D701ED91FC911197CF0103968D9398
:10052A009C9320813181428100E010E022C0103882
:10053A0049F5F6012081318142812F5F3F4F4F4FAC
:10054A002083318342838B870EC085E28B87F60135
:10055A002082318242821A8219821E821D828FEF84
:10056A009FEF9C838B839E01255F3F4F40E801E00C
:10057A0010E0BE016F5F7F4FC4010E948B088A0D95
:10058A009B1D0AC0F60180819181A2810196A11D5D
:10059A0080839183A283C5012E960FB6F894DEBF9D
:1005AA000FBECDBFDF91CF911F910F91FF90EF90BA
:1005BA00DF90CF90BF90AF909F908F907F906F9079
:0805CA004F903F902F9008951F
:1005D200AFE0B0E0EFEEF2E00C94350A1C016B01E3
:1005E2005A8349832B83FB01828193818480958086
:1005F200E080F180A680B78097FD03C0E894E1F81F
:1006020002C081E090E0E981FA81408051806280FD
:1006120073809701207133273D832C838401E4FE8C
:1006220007C0411451046104710411F00250110910
:10063200F701E870FF27FF83EE83E3FE02C001505B
:100642001109F6010084F185E02D3197FF87EE87CD
:10065200EA0DFB1D10829C01201B310B3987288774
:10066200C701827099279B878A87EB818E2FEE0FB5
:10067200990B9C01215431093D872C872E853F859A
:100682002230310530F48C819D81892B09F041C0E3
:100692005BC0411451046104710459F18E859F8538
:1006A20001979F878E87C2018F7099278A309105A3
:1006B20014F4C09602C0895A9F4FEC85FD857A9743
:1006C20048F49C012062215631092A31310510F487
:1006D2000E94740BEE85FF85EA0DFB1D808301509D
:1006E200110984E076946794579447948A95D1F7D8
:1006F200C5CF88859985800F911F1816190674F247
:10070200101611060CF0BFCFEA85FB85EF2B31F6F0
:10071200BACFE981FA8180819181A281B381892B4B
:100722008A2B8B2B89F0EE85FF85EA0DFB1D319715
:100732002B8120838E859F8502979F878E87FC0160
:10074200EA0DFB1D80E38083EE81FF81EF2B59F0E0
:100752002E853F85215031093F872E87F901EA0D09
:10076200FB1D80E28083F60120853185215031090D
:100772008E859F85281B390B8A0D9B1DAC0160E875
:100782008401C1010E9471079C01F1018081918164
:1007920090FF06C0F60182819381821793070CF4C1
:0A07A200C9012F96E2E10C94510A00
:1007AC00CF93DF9300D00F92CDB7DEB70E941A0B18
:1007BC000E94E10A0E946B0B0E94610B0E94A90B24
:1007CC0040E060E186E00E94900919821A821B8247
:1007DC000F2EF8ED2F2EF0E03F2EF0E04F2EF02DE7
:1007EC000F2EF2E0CF2EF1E0DF2EF02D0F2EF8EED3
:1007FC006F2EF0E07F2EF0E08F2EF02D0F2EF2E119
:10080C00EF2EF1E0FF2EF02DAE014D5F5F4FBE01DC
:10081C006E5F7F4FCE0101960E94F80980E00E9426
:10082C00FE0A9093270180932601BC0180E090E0A2
:10083C000E944E0823E23BED49EF5EE30E94C40B9D
:10084C000E94380970932501609324018B811F92BB
:10085C008F938A811F928F9389811F928F934F92CE
:10086C003F922F92DF92CF920E94AD0A8091250188
:10087C008F93809124018F938F927F926F92FF922E
:10088C00EF920E94AD0AF60180810FB6F894DEBF9C
:10089C000FBECDBF882349F003E011E00E947D0B11
:1008AC00F80181918F018111F9CFF70180818823A3
:1008BC0049F003E111E00E947D0BF80181918F0159
:1008CC008111F9CF80912401909125014B9710F063
:1008DC00289A01C02898FFEF29E638E1F150204012
:0A08EC003040E1F700C000008FCF9C
:1008F600A2E0B0E0E1E8F4E00C94350A4C016B01AB
:10090600FB0122813381A480B580808191819A8305
:10091600898366807780FA01208031804280538007
:10092600B201A10157FE07C044275527BA01421953
:1009360053096409750937FD03C08D7F9A8389833E
:10094600950157FC05C0898182FD02C083FF02C064
:1009560021503109CE0101967C010AE010E0C60162
:100966000E94C50557FC03C0298122FF0AC00197D2
:10097600F301E80FF91F57FC02C02BE209C02DE274
:1009860007C023FF06C00197F301E80FF91F20E215
:100996002083E980FA80F6012085318521503109CE
:1009A600281B390B860D971DAC0160E88501C40133
:1009B6000E9471079C01F4018081918190FF06C01D
:1009C600F60182819381821793070CF4C90122965E
:0609D600E2E10C94510A5D
:1009DC00CF93DF93DC01F90168387105F1F05CF419
:1009EC006138710561F164387105C9F160387105C0
:1009FC0009F056C034C0603C710561F1603F71056F
:100A0C0009F443C0603A710509F04AC0C081D18134
:100A1C00CE010296918380832AC0C081D181CE0100
:100A2C00029691838083452B39F04881042E000C6B
:100A3C00550B660B770B21C0488150E02EC0C0814E
:100A4C00D181CE01049691838083488159816A813A
:100A5C007B8113C0C081D181CE0102961AC0C081A6
:100A6C00D181CE01029691838083452BA1F04881E0
:100A7C005981052E000C660B770B4D935D936D938E
:100A8C007C93139781E090E00DC0C081D181CE01A1
:100A9C000396918380834881598160E070E0EDCFAB
:0A0AAC0080E090E0DF91CF91089503
:100AB6000FC00E949B0B38F00E94A20B20F09523DA
:100AC60011F00C94B50B0C94C80B11240C94950BD7
:100AD6000E94B40970F3959FC1F3950F50E0551F1E
:100AE600629FF001729FBB27F00DB11D639FAA277D
:100AF600F00DB11DAA1F649F6627B00DA11D661FCC
:100B0600829F2227B00DA11D621F739FB00DA11DEC
:100B1600621F839FA00D611D221F749F3327A00DA6
:100B2600611D231F849F600D211D822F762F6A2F42
:100B360011249F5750409AF0F1F088234AF0EE0FA7
:100B4600FF1FBB1F661F771F881F91505040A9F7D4
:100B56009E3F510580F00C94B50B0C94950B5F3FAE
:100B6600E4F3983ED4F3869577956795B795F79510
:100B7600E7959F5FC1F7FE2B880F911D9695879588
:040B860097F908953E
:100B8A00A0E0B0E0EBECF5E00C94370ADC012801B8
:100B9A001696AD90BC901797F701808191811296B5
:100BAA00ED91FC9113971896CD91DC9119972197A5
:100BBA00F7FF02C0E1E0F0E0CA0DDB1D188269010F
:100BCA00A1E0B0E08F01021B130B4C01F2E08F226F
:100BDA009924052C000C66087708CE018A199B090E
:100BEA00CA15DB0519F1411551056105710589F031
:100BFA00CB01BA01A30192010E94D609CA01A62F0C
:100C0A00B72F605D6A9341E0C41AD108A901BC01FB
:100C1A00E4CF98012C0D3D1D121613064CF31C143B
:100C2A001D0434F48114910419F702C080E090E0A5
:100C3A00AB2B31F4F701208131812F7E3183208360
:0A0C4A00CDB7DEB7E0E10C94530AC9
:100C5400A2E0B0E0E0E3F6E00C94390A5C016B0139
:100C6400FB012281338184809580808191819A83E4
:100C740089836680778037FD03C08D7F9A8389835B
:100C8400FA014081518162817381CE0101967C0118
:100C940008E010E09401C6010E94C505298124FFE3
:100CA40006C00197F301E80FF91F20E3208329818F
:100CB40023FF06C00197F301E80FF91F20E2208308
:100CC400E980FA80F6012085318521503109281BFD
:100CD400390B860D971DAC0160E88401C5010E94A3
:100CE40071079C01F5018081918190FF06C0F60196
:100CF40082819381821793070CF4C9012296EEE056
:040D04000C94550AEC
:100D08006F927F928F92EF92FF920F931F93CF93E0
:100D1800DF93CDB7DEB761970FB6F894DEBF0FBE8D
:100D2800CDBFFE01319651E1DF011D925A95E9F7D9
:100D3800A2E0B1E0BA83A9839C838B8377FF09C0C3
:100D48008FE490E090930101809300018FEF9FEF73
:100D580019C03901842E7C01615071097F836E832B
:100D68009801682DA301CF010E946C0A4885598516
:100D78002E813F814217530708F49A01F701E20FC9
:100D8800F31F108261960FB6F894DEBF0FBECDBF79
:100D9800DF91CF911F910F91FF90EF908F907F90EF
:040DA8006F900895AB
:100DAC00CF92DF92EF92DC0190E0292F30E0220FFE
:100DBC00331F6901032E000CEE086E2DA6014E5355
:100DCC005F4F6F4F6A01E62EFA018491E7FC808138
:100DDC0081110DC02F5F3F4F032E000C440B2E537F
:100DEC003F4F4F4FF901849147FD808124C0CD9036
:100DFC00DD90EC901297F6014491E7FC408184134E
:100E0C0015C02F5F3F4F032E000C440B2E533F4F4A
:100E1C004F4FF901949147FD90815FEFC51AD50AA8
:100E2C00E50ACD92DD92EC92129701C09F5F9B3048
:0E0E3C0008F4BBCF892FEF90DF90CF90089580
:100E4A000F931F93CF93DF93DB01109719F48FEF62
:100E5A009FEF3DC02D913C91119730FF25C0179609
:100E6A004D915C91189715962D913C9116974217C2
:100E7A00530778F41296ED91FC911397808312969A
:100E8A002D913C9113972F5F3F4F13963C932E93CE
:100E9A00129717962D913C9118972F5F3F4F1896EE
:100EAA003C932E93179713C01D96ED91FC911E97B4
:100EBA00309769F2EB01092F182F0995892B39F61A
:100ECA008F819885019698878F83812F902FDF9144
:080EDA00CF911F910F910895C3
:100EE2006F927F928F92AF92BF92CF92DF92EF92E8
:100EF200FF920F931F93CF93DF935C013A01862EEB
:100F0200E901670181E0C822DD24E0FC03C020176B
:100F1200310758F09E01682DA301C5010E94040902
:100F2200C017D10710F0CE0118C07801EC1AFD0AE3
:100F3200E114F10449F0B50180E290E00E94250736
:100F420081E0E81AF108F4CFCD2831F49E01682D32
:100F5200A301C5010E940409C801DF91CF911F912D
:100F62000F91FF90EF90DF90CF90BF90AF908F9056
:060F72007F906F900895CE
:100F7800A3E8B0E0E2ECF7E00C943B0A5C0149011D
:100F8800CF57DF4F488359836A83C158D040C12C5B
:100F9800D12CCF57DF4F2881C158D040CE57DF4FD3
:100FA8009881C258D040CD57DF4F8881C358D04070
:100FB800E22FF92F949187FD90819923E9F074012C
:100FC800860120E830E0AE014F5F5F4FBE016F57EA
:100FD8007F4FC5010E947D008C0D9D1D8C159D05C0
:100FE8004CF48FE490E090930101809300018FEF1F
:100FF8009FEF03C06C01CDCFC601CD57DF4FECE0AA
:041008000C94570AE3
:10100C00A2E0B0E0ECE0F8E00C94390A5C016B0172
:10101C00FB012281338184809580808191819A8328
:10102C0089836680778037FD03C08D7F9A8389839F
:10103C00FA014081518162817381CE0101967C015C
:10104C000AE010E09401C6010E94C505E980FA800F
:10105C00F6012085318521503109281B390B860D6D
:10106C00971DAC0160E88401C5010E9471079C01C9
:10107C00F5018081918190FF06C0F60182819381F8
:10108C00821793070CF4C9012296EEE00C94550AD2
:10109C00E89409C097FB3EF4909580957095619506
:1010AC007F4F8F4F9F4F9923A9F0F92F96E9BB27BC
:1010BC009395F695879577956795B795F111F8CF38
:1010CC00FAF4BB0F11F460FF1BC06F5F7F4F8F4FA3
:1010DC009F4F16C0882311F096E911C0772321F099
:1010EC009EE8872F762F05C0662371F096E8862F31
:1010FC0070E060E02AF09A95660F771F881FDAF788
:0A110C00880F9695879597F90895CE
:101116006F927F928F92CF92DF92EF92FF920F9310
:101126001F93CF93DF936C01FB013901842EC80115
:10113600C281D38104811581E080F180232B242B89
:1011460031F42DEE622E20E0722E20E0822E0097E2
:1011560021F4882DB3010E94840AD7FD04C0C81764
:10116600D90708F4CE019C01682DA301C6010E948F
:101176007107DF91CF911F910F91FF90EF90DF9054
:0A118600CF908F907F906F90089536
:10119000DC012D913D914C911297F901849147FD0D
:1011A00080818A3221F080E090E07AE011C02F5FE8
:1011B0003F4F4F4F2D933D934C93DB01ED91FC91AD
:1011C0001197CF0102968D939C9380819181089510
:1011D0002D913D914C911297F901549147FD508109
:1011E00050535A3080F4789FF001799FF00D11240C
:1011F000CF01850F911D2F5F3F4F4F4F2D933D9393
:081200004C931297E5CF08950D
:101208006F927F928F92CF92DF92EF920F931F93FC
:10121800CF93DF938C016A01E62EE9013A01862E0D
:10122800620E731E811C37FD8A94C614D704E80425
:1012380079F0F6018491E7FC8081B801082E000C52
:10124800990B0E9425078FEFC81AD80AE80AEDCF34
:10125800CE01DF91CF911F910F91EF90DF90CF904A
:081268008F907F906F900895B4
:101270000E94BC0988F09F5798F0B92F9927B75161
:10128000B0F0E1F0660F771F881F991F1AF0BA952A
:10129000C9F714C0B13091F00E94940BB1E00895E9
:1012A0000C94940B672F782F8827B85F39F0B93FDB
:1012B000CCF3869577956795B395D9F73EF49095DD
:0E12C0008095709561957F4F8F4F9F4F0895D9
:1012CE001F920F920FB60F9211242F933F934F93AD
:1012DE005F936F937F938F939F93AF93BF93EF9390
:1012EE00FF93E0912201F0912301309709F00995C7
:1012FE00FF91EF91BF91AF919F918F917F916F91E0
:10130E005F914F913F912F910F900FBE0F901F90B5
:02131E00189520
:101320001F93CF93DF93C82FD62F142F0E94330B18
:1013300080ED0E940C0B80E00E940C0B812F0E941C
:101340009A0A0E940C0B8D2F0E949A0A0E940C0B85
:101350008C2F0E949A0A0E940C0B84E98093BC0097
:08136000DF91CF911F91089568
:1013680057FD9058440F551F59F05F3F71F047954E
:10137800880F97FB991F61F09F3F79F08795089533
:10138800121613061406551FF2CF4695F1DF08C052
:10139800161617061806991FF1CF8695710561056F
:0413A8000894089508
:1013AC00A1E21A2EAA1BBB1BFD010DC0AA1FBB1F5D
:1013BC00EE1FFF1FA217B307E407F50720F0A21BCF
:1013CC00B30BE40BF50B661F771F881F991F1A943C
:1013DC0069F760957095809590959B01AC01BD0166
:0413EC00CF01089590
:1013F000EF92FF920F931F93CF93DF93EC018B013A
:101400007A0160E088E60E94190AF701808361E0B2
:1014100088E60E94190AF801808362E088E60E944B
:10142000190A8883DF91CF911F910F91FF90EF9060
:0214300008951D
:10143200CF93DF93C82FD62F0E94330B8C2F880FA8
:101442000E940C0B8D2F0E940C0B0E94330B8C2FD1
:10145200880F81600E940C0B0E944B0B94E99093C1
:08146200BC00DF91CF91089559
:10146A002F923F924F925F926F927F928F929F92AA
:10147A00AF92BF92CF92DF92EF92FF920F931F9398
:10148A00CF93DF93CDB7DEB7CA1BDB0B0FB6F89449
:08149A00DEBF0FBECDBF0994B7
:1014A2002A88398848885F846E847D848C849B84F2
:1014B200AA84B984C884DF80EE80FD800C811B8100
:1014C200AA81B981CE0FD11D0FB6F894DEBF0FBE2F
:0614D200CDBFED010895FD
:1014D800A2E0B0E0E2E7FAE00C94430A8C013A8318
:1014E80029839E012F5F3F4F0E94BC07F80120818E
:1014F80024FF02C08FEF9FEF2296E4E00C945F0A6E
:10150800CF92DF92EF926B01E82EA82FCB01FC015E
:101518002491A7FD2081222319F00196A11DF7CF60
:0C1528008C199D09EF90DF90CF90089582
:101534009DEC899F912D112496959695969520E181
:10154400929FA0011124990F292F220F220F920F8D
:06155400891B842B0895A1
:10155A00A0E0B0E0E3EBFAE00C94450A9E01265FB6
:10156A003F4F4F81588569858D819E810E943F0B2F
:06157A00E2E00C94610A9E
:10158000092E0394000C11F4882352F0BB0F40F491
:10159000BF2B11F460FF04C06F5F7F4F8F4F9F4FD1
:0215A0000895AC
:1015A2008F938FB78F93EF93FF93E0E6F0E0808104
:1015B2008F778083FF91EF918F918FBF8F911895D5
:1015C20083E390E09093C5008093C4001092C00022
:0E15D20088E18093C10086E08093C2000895F6
:1015E000ECE7F0E09081907F90839081892B80835D
:0C15F000EAE7F0E08081806480830895C9
:1015FC000E94F00A0E94BB0B8823E1F30E948D0B22
:0C160C00EAE7F0E02081206120830895CF
:101618008093BB0084E88093BC00ECEBF0E0808111
:0C1628008823ECF78091B900887F0895BA
:101634000E94270B0E94AF0B109260000E94C00B07
:0A1644000E94610B0E94E10A089564
:10164E0081E084B917B882E08AB915B818B81BB80A
:08165E0013B816B819B808957D
:1016660084EA8093BC00ECEBF0E080818823ECF701
:081676008091B900887F0895FE
:10167E000F931F9389019A01462F6FEF7FE70E9408
:08168E0084061F910F910895DD
:1016960084E88093BC00ECEBF0E080818823ECF7D3
:0616A6008091BB000895D5
:1016AC00EC010E94D00B0E94CF0BCE010E94D10BFB
:0616BC00CE010E94CD0BDF
:1016C20080E480937C0010927B0081E880937A0012
:0416D20080E0089517
:1016D6001092B90080E28093B80084E08093BC0049
:0216E600089565
:1016E8009C01215631092A31310510F48F7599274B
:0216F800089553
:1016FA00E0ECF0E0908195FFFDCF8093C60008955D
:10170A009C01215431092A31310508F48062089577
:0E171A00809178002091790090E0922B089544
:0E172800E894BB2766277727CB0197F9089531
:0E17360000240A9416161706180609060895D0
:0E17440000240A9412161306140605060895D2
:0C175200EAE7F0E0808180688083089561
:0C175E001092610013BE15BE80E00895DB
:0C176A0097F99F6780E870E060E0089548
:0A17760080917A0082958170089539
:0817800013BE15BE80E00895C0
:081788000E945B050C94C00AED
:061790009FEF80EC0895BC
:041796000C940000AF
:04179A000E945F004A
:02179E000895AC
:0217A0000895AA
:0217A2000895A8
:02000004008278
:0300000042DF07D5
:00000001FF
